{
  "_format": "hh-sol-artifact-1",
  "contractName": "SWFContract",
  "sourceName": "contracts/SWFContract.sol",
  "abi": [
    {
      "inputs": [],
      "stateMutability": "nonpayable",
      "type": "constructor"
    },
    {
      "anonymous": false,
      "inputs": [
        {
          "indexed": true,
          "internalType": "address",
          "name": "previousOwner",
          "type": "address"
        },
        {
          "indexed": true,
          "internalType": "address",
          "name": "newOwner",
          "type": "address"
        }
      ],
      "name": "OwnershipTransferred",
      "type": "event"
    },
    {
      "inputs": [
        {
          "internalType": "string",
          "name": "",
          "type": "string"
        },
        {
          "internalType": "uint256",
          "name": "",
          "type": "uint256"
        }
      ],
      "name": "datas",
      "outputs": [
        {
          "internalType": "string",
          "name": "detail",
          "type": "string"
        },
        {
          "internalType": "uint8",
          "name": "rentType",
          "type": "uint8"
        },
        {
          "internalType": "uint256",
          "name": "rentStart",
          "type": "uint256"
        },
        {
          "internalType": "uint256",
          "name": "rentEnd",
          "type": "uint256"
        },
        {
          "internalType": "uint256",
          "name": "contractDate",
          "type": "uint256"
        }
      ],
      "stateMutability": "view",
      "type": "function"
    },
    {
      "inputs": [],
      "name": "owner",
      "outputs": [
        {
          "internalType": "address",
          "name": "",
          "type": "address"
        }
      ],
      "stateMutability": "view",
      "type": "function"
    },
    {
      "inputs": [
        {
          "internalType": "string",
          "name": "_address",
          "type": "string"
        },
        {
          "internalType": "string",
          "name": "_detail",
          "type": "string"
        },
        {
          "internalType": "uint256",
          "name": "_rentStart",
          "type": "uint256"
        },
        {
          "internalType": "uint256",
          "name": "_rentEnd",
          "type": "uint256"
        },
        {
          "internalType": "uint256",
          "name": "_contractDate",
          "type": "uint256"
        },
        {
          "internalType": "uint8",
          "name": "_rentType",
          "type": "uint8"
        }
      ],
      "name": "registerData",
      "outputs": [],
      "stateMutability": "nonpayable",
      "type": "function"
    },
    {
      "inputs": [],
      "name": "renounceOwnership",
      "outputs": [],
      "stateMutability": "nonpayable",
      "type": "function"
    },
    {
      "inputs": [],
      "name": "total",
      "outputs": [
        {
          "internalType": "uint256",
          "name": "",
          "type": "uint256"
        }
      ],
      "stateMutability": "view",
      "type": "function"
    },
    {
      "inputs": [
        {
          "internalType": "address",
          "name": "newOwner",
          "type": "address"
        }
      ],
      "name": "transferOwnership",
      "outputs": [],
      "stateMutability": "nonpayable",
      "type": "function"
    }
  ],
  "bytecode": "0x608060405234801561001057600080fd5b5061002d61002261003a60201b60201c565b61004260201b60201c565b6000600181905550610106565b600033905090565b60008060009054906101000a900473ffffffffffffffffffffffffffffffffffffffff169050816000806101000a81548173ffffffffffffffffffffffffffffffffffffffff021916908373ffffffffffffffffffffffffffffffffffffffff1602179055508173ffffffffffffffffffffffffffffffffffffffff168173ffffffffffffffffffffffffffffffffffffffff167f8be0079c531659141344cd1fd0a4f28419497f9722a3daafe3b4186f6b6457e060405160405180910390a35050565b610e0d806101156000396000f3fe608060405234801561001057600080fd5b50600436106100625760003560e01c80632ddbd13a1461006757806350d6298314610085578063715018a6146100b95780638da5cb5b146100c3578063ebd69c89146100e1578063f2fde38b146100fd575b600080fd5b61006f610119565b60405161007c9190610510565b60405180910390f35b61009f600480360381019061009a91906106b1565b61011f565b6040516100b09594939291906107a8565b60405180910390f35b6100c161021d565b005b6100cb610231565b6040516100d89190610843565b60405180910390f35b6100fb60048036038101906100f6919061088a565b61025a565b005b6101176004803603810190610112919061097b565b61032a565b005b60015481565b600282805160208101820180518482526020830160208501208183528095505050505050818154811061015157600080fd5b906000526020600020906005020160009150915050806000018054610175906109d7565b80601f01602080910402602001604051908101604052809291908181526020018280546101a1906109d7565b80156101ee5780601f106101c3576101008083540402835291602001916101ee565b820191906000526020600020905b8154815290600101906020018083116101d157829003601f168201915b5050505050908060010160009054906101000a900460ff16908060020154908060030154908060040154905085565b6102256103ad565b61022f600061042b565b565b60008060009054906101000a900473ffffffffffffffffffffffffffffffffffffffff16905090565b60028660405161026a9190610a44565b90815260200160405180910390206040518060a001604052808781526020018360ff16815260200186815260200185815260200184815250908060018154018082558091505060019003906000526020600020906005020160009091909190915060008201518160000190816102e09190610c07565b5060208201518160010160006101000a81548160ff021916908360ff1602179055506040820151816002015560608201518160030155608082015181600401555050505050505050565b6103326103ad565b600073ffffffffffffffffffffffffffffffffffffffff168173ffffffffffffffffffffffffffffffffffffffff16036103a1576040517f08c379a000000000000000000000000000000000000000000000000000000000815260040161039890610d4b565b60405180910390fd5b6103aa8161042b565b50565b6103b56104ef565b73ffffffffffffffffffffffffffffffffffffffff166103d3610231565b73ffffffffffffffffffffffffffffffffffffffff1614610429576040517f08c379a000000000000000000000000000000000000000000000000000000000815260040161042090610db7565b60405180910390fd5b565b60008060009054906101000a900473ffffffffffffffffffffffffffffffffffffffff169050816000806101000a81548173ffffffffffffffffffffffffffffffffffffffff021916908373ffffffffffffffffffffffffffffffffffffffff1602179055508173ffffffffffffffffffffffffffffffffffffffff168173ffffffffffffffffffffffffffffffffffffffff167f8be0079c531659141344cd1fd0a4f28419497f9722a3daafe3b4186f6b6457e060405160405180910390a35050565b600033905090565b6000819050919050565b61050a816104f7565b82525050565b60006020820190506105256000830184610501565b92915050565b6000604051905090565b600080fd5b600080fd5b600080fd5b600080fd5b6000601f19601f8301169050919050565b7f4e487b7100000000000000000000000000000000000000000000000000000000600052604160045260246000fd5b61059282610549565b810181811067ffffffffffffffff821117156105b1576105b061055a565b5b80604052505050565b60006105c461052b565b90506105d08282610589565b919050565b600067ffffffffffffffff8211156105f0576105ef61055a565b5b6105f982610549565b9050602081019050919050565b82818337600083830152505050565b6000610628610623846105d5565b6105ba565b90508281526020810184848401111561064457610643610544565b5b61064f848285610606565b509392505050565b600082601f83011261066c5761066b61053f565b5b813561067c848260208601610615565b91505092915050565b61068e816104f7565b811461069957600080fd5b50565b6000813590506106ab81610685565b92915050565b600080604083850312156106c8576106c7610535565b5b600083013567ffffffffffffffff8111156106e6576106e561053a565b5b6106f285828601610657565b92505060206107038582860161069c565b9150509250929050565b600081519050919050565b600082825260208201905092915050565b60005b8381101561074757808201518184015260208101905061072c565b60008484015250505050565b600061075e8261070d565b6107688185610718565b9350610778818560208601610729565b61078181610549565b840191505092915050565b600060ff82169050919050565b6107a28161078c565b82525050565b600060a08201905081810360008301526107c28188610753565b90506107d16020830187610799565b6107de6040830186610501565b6107eb6060830185610501565b6107f86080830184610501565b9695505050505050565b600073ffffffffffffffffffffffffffffffffffffffff82169050919050565b600061082d82610802565b9050919050565b61083d81610822565b82525050565b60006020820190506108586000830184610834565b92915050565b6108678161078c565b811461087257600080fd5b50565b6000813590506108848161085e565b92915050565b60008060008060008060c087890312156108a7576108a6610535565b5b600087013567ffffffffffffffff8111156108c5576108c461053a565b5b6108d189828a01610657565b965050602087013567ffffffffffffffff8111156108f2576108f161053a565b5b6108fe89828a01610657565b955050604061090f89828a0161069c565b945050606061092089828a0161069c565b935050608061093189828a0161069c565b92505060a061094289828a01610875565b9150509295509295509295565b61095881610822565b811461096357600080fd5b50565b6000813590506109758161094f565b92915050565b60006020828403121561099157610990610535565b5b600061099f84828501610966565b91505092915050565b7f4e487b7100000000000000000000000000000000000000000000000000000000600052602260045260246000fd5b600060028204905060018216806109ef57607f821691505b602082108103610a0257610a016109a8565b5b50919050565b600081905092915050565b6000610a1e8261070d565b610a288185610a08565b9350610a38818560208601610729565b80840191505092915050565b6000610a508284610a13565b915081905092915050565b60008190508160005260206000209050919050565b60006020601f8301049050919050565b600082821b905092915050565b600060088302610abd7fffffffffffffffffffffffffffffffffffffffffffffffffffffffffffffffff82610a80565b610ac78683610a80565b95508019841693508086168417925050509392505050565b6000819050919050565b6000610b04610aff610afa846104f7565b610adf565b6104f7565b9050919050565b6000819050919050565b610b1e83610ae9565b610b32610b2a82610b0b565b848454610a8d565b825550505050565b600090565b610b47610b3a565b610b52818484610b15565b505050565b5b81811015610b7657610b6b600082610b3f565b600181019050610b58565b5050565b601f821115610bbb57610b8c81610a5b565b610b9584610a70565b81016020851015610ba4578190505b610bb8610bb085610a70565b830182610b57565b50505b505050565b600082821c905092915050565b6000610bde60001984600802610bc0565b1980831691505092915050565b6000610bf78383610bcd565b9150826002028217905092915050565b610c108261070d565b67ffffffffffffffff811115610c2957610c2861055a565b5b610c3382546109d7565b610c3e828285610b7a565b600060209050601f831160018114610c715760008415610c5f578287015190505b610c698582610beb565b865550610cd1565b601f198416610c7f86610a5b565b60005b82811015610ca757848901518255600182019150602085019450602081019050610c82565b86831015610cc45784890151610cc0601f891682610bcd565b8355505b6001600288020188555050505b505050505050565b7f4f776e61626c653a206e6577206f776e657220697320746865207a65726f206160008201527f6464726573730000000000000000000000000000000000000000000000000000602082015250565b6000610d35602683610718565b9150610d4082610cd9565b604082019050919050565b60006020820190508181036000830152610d6481610d28565b9050919050565b7f4f776e61626c653a2063616c6c6572206973206e6f7420746865206f776e6572600082015250565b6000610da1602083610718565b9150610dac82610d6b565b602082019050919050565b60006020820190508181036000830152610dd081610d94565b905091905056fea264697066735822122006c40e71bc37365f321bad5aadbafa83e674b67c59d2b020423c27a8c18a22d164736f6c63430008110033",
  "linkReferences": {},
  "deployedLinkReferences": {}
}