{
  "_format": "hh-sol-artifact-1",
  "contractName": "SWFContract",
  "sourceName": "contracts/SWFContract.sol",
  "abi": [
    {
      "inputs": [],
      "stateMutability": "nonpayable",
      "type": "constructor"
    },
    {
      "anonymous": false,
      "inputs": [
        {
          "indexed": true,
          "internalType": "address",
          "name": "previousOwner",
          "type": "address"
        },
        {
          "indexed": true,
          "internalType": "address",
          "name": "newOwner",
          "type": "address"
        }
      ],
      "name": "OwnershipTransferred",
      "type": "event"
    },
    {
      "inputs": [
        {
          "internalType": "string",
          "name": "",
          "type": "string"
        },
        {
          "internalType": "string",
          "name": "",
          "type": "string"
        },
        {
          "internalType": "uint256",
          "name": "",
          "type": "uint256"
        }
      ],
      "name": "datas",
      "outputs": [
        {
          "internalType": "uint8",
          "name": "rentType",
          "type": "uint8"
        },
        {
          "internalType": "uint256",
          "name": "rentStart",
          "type": "uint256"
        },
        {
          "internalType": "uint256",
          "name": "rentEnd",
          "type": "uint256"
        },
        {
          "internalType": "uint256",
          "name": "contractDate",
          "type": "uint256"
        }
      ],
      "stateMutability": "view",
      "type": "function"
    },
    {
      "inputs": [],
      "name": "owner",
      "outputs": [
        {
          "internalType": "address",
          "name": "",
          "type": "address"
        }
      ],
      "stateMutability": "view",
      "type": "function"
    },
    {
      "inputs": [
        {
          "internalType": "string",
          "name": "_key",
          "type": "string"
        },
        {
          "internalType": "string",
          "name": "_detail",
          "type": "string"
        },
        {
          "internalType": "uint256",
          "name": "_rentStart",
          "type": "uint256"
        },
        {
          "internalType": "uint256",
          "name": "_rentEnd",
          "type": "uint256"
        },
        {
          "internalType": "uint256",
          "name": "_contractDate",
          "type": "uint256"
        },
        {
          "internalType": "uint8",
          "name": "_rentType",
          "type": "uint8"
        }
      ],
      "name": "registerData",
      "outputs": [],
      "stateMutability": "nonpayable",
      "type": "function"
    },
    {
      "inputs": [],
      "name": "renounceOwnership",
      "outputs": [],
      "stateMutability": "nonpayable",
      "type": "function"
    },
    {
      "inputs": [],
      "name": "total",
      "outputs": [
        {
          "internalType": "uint256",
          "name": "",
          "type": "uint256"
        }
      ],
      "stateMutability": "view",
      "type": "function"
    },
    {
      "inputs": [
        {
          "internalType": "address",
          "name": "newOwner",
          "type": "address"
        }
      ],
      "name": "transferOwnership",
      "outputs": [],
      "stateMutability": "nonpayable",
      "type": "function"
    }
  ],
  "bytecode": "0x608060405234801561001057600080fd5b5061002d61002261003a60201b60201c565b61004260201b60201c565b6000600181905550610106565b600033905090565b60008060009054906101000a900473ffffffffffffffffffffffffffffffffffffffff169050816000806101000a81548173ffffffffffffffffffffffffffffffffffffffff021916908373ffffffffffffffffffffffffffffffffffffffff1602179055508173ffffffffffffffffffffffffffffffffffffffff168173ffffffffffffffffffffffffffffffffffffffff167f8be0079c531659141344cd1fd0a4f28419497f9722a3daafe3b4186f6b6457e060405160405180910390a35050565b610aa4806101156000396000f3fe608060405234801561001057600080fd5b50600436106100625760003560e01c80632ddbd13a146100675780636446acd714610085578063715018a6146100b85780638da5cb5b146100c2578063ebd69c89146100e0578063f2fde38b146100fc575b600080fd5b61006f610118565b60405161007c91906104a4565b60405180910390f35b61009f600480360381019061009a9190610645565b61011e565b6040516100af94939291906106ec565b60405180910390f35b6100c06101b1565b005b6100ca6101c5565b6040516100d79190610772565b60405180910390f35b6100fa60048036038101906100f591906107b9565b6101ee565b005b610116600480360381019061011191906108aa565b6102be565b005b60015481565b60028380516020810182018051848252602083016020850120818352809550505050505082805160208101820180518482526020830160208501208183528095505050505050818154811061017257600080fd5b906000526020600020906004020160009250925050508060000160009054906101000a900460ff16908060010154908060020154908060030154905084565b6101b9610341565b6101c360006103bf565b565b60008060009054906101000a900473ffffffffffffffffffffffffffffffffffffffff16905090565b6002866040516101fe9190610948565b90815260200160405180910390208560405161021a9190610948565b908152602001604051809103902060405180608001604052808360ff16815260200186815260200185815260200184815250908060018154018082558091505060019003906000526020600020906004020160009091909190915060008201518160000160006101000a81548160ff021916908360ff1602179055506020820151816001015560408201518160020155606082015181600301555050505050505050565b6102c6610341565b600073ffffffffffffffffffffffffffffffffffffffff168173ffffffffffffffffffffffffffffffffffffffff1603610335576040517f08c379a000000000000000000000000000000000000000000000000000000000815260040161032c906109e2565b60405180910390fd5b61033e816103bf565b50565b610349610483565b73ffffffffffffffffffffffffffffffffffffffff166103676101c5565b73ffffffffffffffffffffffffffffffffffffffff16146103bd576040517f08c379a00000000000000000000000000000000000000000000000000000000081526004016103b490610a4e565b60405180910390fd5b565b60008060009054906101000a900473ffffffffffffffffffffffffffffffffffffffff169050816000806101000a81548173ffffffffffffffffffffffffffffffffffffffff021916908373ffffffffffffffffffffffffffffffffffffffff1602179055508173ffffffffffffffffffffffffffffffffffffffff168173ffffffffffffffffffffffffffffffffffffffff167f8be0079c531659141344cd1fd0a4f28419497f9722a3daafe3b4186f6b6457e060405160405180910390a35050565b600033905090565b6000819050919050565b61049e8161048b565b82525050565b60006020820190506104b96000830184610495565b92915050565b6000604051905090565b600080fd5b600080fd5b600080fd5b600080fd5b6000601f19601f8301169050919050565b7f4e487b7100000000000000000000000000000000000000000000000000000000600052604160045260246000fd5b610526826104dd565b810181811067ffffffffffffffff82111715610545576105446104ee565b5b80604052505050565b60006105586104bf565b9050610564828261051d565b919050565b600067ffffffffffffffff821115610584576105836104ee565b5b61058d826104dd565b9050602081019050919050565b82818337600083830152505050565b60006105bc6105b784610569565b61054e565b9050828152602081018484840111156105d8576105d76104d8565b5b6105e384828561059a565b509392505050565b600082601f830112610600576105ff6104d3565b5b81356106108482602086016105a9565b91505092915050565b6106228161048b565b811461062d57600080fd5b50565b60008135905061063f81610619565b92915050565b60008060006060848603121561065e5761065d6104c9565b5b600084013567ffffffffffffffff81111561067c5761067b6104ce565b5b610688868287016105eb565b935050602084013567ffffffffffffffff8111156106a9576106a86104ce565b5b6106b5868287016105eb565b92505060406106c686828701610630565b9150509250925092565b600060ff82169050919050565b6106e6816106d0565b82525050565b600060808201905061070160008301876106dd565b61070e6020830186610495565b61071b6040830185610495565b6107286060830184610495565b95945050505050565b600073ffffffffffffffffffffffffffffffffffffffff82169050919050565b600061075c82610731565b9050919050565b61076c81610751565b82525050565b60006020820190506107876000830184610763565b92915050565b610796816106d0565b81146107a157600080fd5b50565b6000813590506107b38161078d565b92915050565b60008060008060008060c087890312156107d6576107d56104c9565b5b600087013567ffffffffffffffff8111156107f4576107f36104ce565b5b61080089828a016105eb565b965050602087013567ffffffffffffffff811115610821576108206104ce565b5b61082d89828a016105eb565b955050604061083e89828a01610630565b945050606061084f89828a01610630565b935050608061086089828a01610630565b92505060a061087189828a016107a4565b9150509295509295509295565b61088781610751565b811461089257600080fd5b50565b6000813590506108a48161087e565b92915050565b6000602082840312156108c0576108bf6104c9565b5b60006108ce84828501610895565b91505092915050565b600081519050919050565b600081905092915050565b60005b8381101561090b5780820151818401526020810190506108f0565b60008484015250505050565b6000610922826108d7565b61092c81856108e2565b935061093c8185602086016108ed565b80840191505092915050565b60006109548284610917565b915081905092915050565b600082825260208201905092915050565b7f4f776e61626c653a206e6577206f776e657220697320746865207a65726f206160008201527f6464726573730000000000000000000000000000000000000000000000000000602082015250565b60006109cc60268361095f565b91506109d782610970565b604082019050919050565b600060208201905081810360008301526109fb816109bf565b9050919050565b7f4f776e61626c653a2063616c6c6572206973206e6f7420746865206f776e6572600082015250565b6000610a3860208361095f565b9150610a4382610a02565b602082019050919050565b60006020820190508181036000830152610a6781610a2b565b905091905056fea264697066735822122001347cec63f99f7c4b783886eec481cc92160db5c6f2fdcf0a9e1ac0a1f5cbc964736f6c63430008110033",
  "linkReferences": {},
  "deployedLinkReferences": {}
}